:03000000020800F3
:0C080000787FE4F6D8FD758115020847EA
:080A29000214000A0210000A89
:0C09F200E4FFFE1209FE75B002E4FFFEF7
:1009FE00EF4E7026FFFEE4FDFCC3ED9511E510648D
:100A0E0080F8EC64809850070DBD00010C80EA0F51
:0A0A1E00BF00010EBE01DFBFF4DCD3
:010A280022AB
:040952008E0E8F0F67
:100956007B017A00D3EB950FE50E6480F8EA64809C
:1009660098503090000075B0011209F275B004E499
:10097600FFFE1209FE75B008E4FFFE1209FEA3E5AC
:1009860082640B458370DFE5132BF5A00BBB0001DA
:0F0996000A80C1E50F2513F513E50E3512F51292
:0109A500222F
:0408F1008E0E8F0FC9
:1008F5007B017A00D3EB950FE50E6480F8EA6480FE
:1009050098503C900000D3E5829515E5146480F875
:10091500E583648098501B75B008E4FFFE1209FE5C
:1009250075B0041209F275B001E4FFFE1209FEA3C9
:1009350080D4C3E5139BF5A00BBB00010A80B5C3AA
:0C094500E513950FF513E512950EF51261
:010951002283
:0409A6008E0A8F0B1B
:1009AA00D3E50B9513E5126480F8E50A6480984054
:1009BA0012E50B9513F50DE50A9512F50CAF0DFE30
:1009CA00120952C3E50B9513E5126480F8E50A642F
:1009DA0080985013C3E513950BF50DE512950AF5AA
:0709EA000CAF0DFE1208F135
:0109F10022E3
:10088C007512007513018513A0E580B4010D750870
:10089C00007509017F017E001209A6E580B4020DE6
:1008AC007508007509027F027E001209A6E580B466
:1008BC00040D7508007509037F037E001209A6E577
:1008CC0080B4080D7508007509047F047E001209B8
:1008DC00A6E580B410B37508007509057F057E0088
:0508EC001209A680A422
:10080C0002088CE493A3F8E493A34003F68001F26E
:10081C0008DFF48029E493A3F85407240CC8C333ED
:10082C00C4540F4420C8834004F456800146F6DFBC
:10083C00E4800B0102040810204080900A29E47E19
:10084C00019360BCA3FF543F30E509541FFEE493B1
:10085C00A360010ECF54C025E060A840B8E493A378
:10086C00FAE493A3F8E493A3C8C582C8CAC583CAA3
:10087C00F0A3C8C582C8CAC583CADFE9DEE780BE5B
:010A310000C4
:00000001FF
